{
    "contractName": "LendingFactory",
    "abi": [
        {
            "inputs": [],
            "stateMutability": "nonpayable",
            "type": "constructor"
        },
        {
            "anonymous": false,
            "inputs": [
                {
                    "indexed": false,
                    "internalType": "address payable",
                    "name": "lender",
                    "type": "address"
                },
                {
                    "indexed": false,
                    "internalType": "uint256",
                    "name": "offerTokenAmount",
                    "type": "uint256"
                },
                {
                    "indexed": false,
                    "internalType": "uint256",
                    "name": "offerRate",
                    "type": "uint256"
                }
            ],
            "name": "LenderMakeOffer",
            "type": "event"
        },
        {
            "anonymous": false,
            "inputs": [
                {
                    "indexed": false,
                    "internalType": "address",
                    "name": "vendor",
                    "type": "address"
                },
                {
                    "indexed": false,
                    "internalType": "address",
                    "name": "lender",
                    "type": "address"
                },
                {
                    "indexed": false,
                    "internalType": "contract ERC721",
                    "name": "NFTAddress",
                    "type": "address"
                },
                {
                    "indexed": false,
                    "internalType": "uint256",
                    "name": "tokenId",
                    "type": "uint256"
                },
                {
                    "indexed": false,
                    "internalType": "uint256",
                    "name": "tokenAmount",
                    "type": "uint256"
                },
                {
                    "indexed": false,
                    "internalType": "uint256",
                    "name": "tokenRate",
                    "type": "uint256"
                },
                {
                    "indexed": false,
                    "internalType": "uint256",
                    "name": "amountOfTime",
                    "type": "uint256"
                },
                {
                    "indexed": false,
                    "internalType": "uint256",
                    "name": "deadLine",
                    "type": "uint256"
                }
            ],
            "name": "VendorAcceptOffer",
            "type": "event"
        },
        {
            "anonymous": false,
            "inputs": [
                {
                    "indexed": false,
                    "internalType": "address",
                    "name": "vendor",
                    "type": "address"
                },
                {
                    "indexed": false,
                    "internalType": "address",
                    "name": "lender",
                    "type": "address"
                },
                {
                    "indexed": false,
                    "internalType": "contract ERC721",
                    "name": "NFTAddress",
                    "type": "address"
                },
                {
                    "indexed": false,
                    "internalType": "uint256",
                    "name": "tokenId",
                    "type": "uint256"
                },
                {
                    "indexed": false,
                    "internalType": "uint256",
                    "name": "tokenAmount",
                    "type": "uint256"
                },
                {
                    "indexed": false,
                    "internalType": "uint256",
                    "name": "tokenRate",
                    "type": "uint256"
                },
                {
                    "indexed": false,
                    "internalType": "uint256",
                    "name": "amountOfTime",
                    "type": "uint256"
                },
                {
                    "indexed": false,
                    "internalType": "uint256",
                    "name": "deadLine",
                    "type": "uint256"
                }
            ],
            "name": "VendorMakeRequest",
            "type": "event"
        },
        {
            "anonymous": false,
            "inputs": [],
            "name": "VendorReddem",
            "type": "event"
        },
        {
            "inputs": [
                {
                    "internalType": "uint256",
                    "name": "_requestNumber",
                    "type": "uint256"
                },
                {
                    "internalType": "uint256",
                    "name": "_offerNumber",
                    "type": "uint256"
                }
            ],
            "name": "getOfferBook",
            "outputs": [
                {
                    "components": [
                        {
                            "internalType": "address payable",
                            "name": "lender",
                            "type": "address"
                        },
                        {
                            "internalType": "uint256",
                            "name": "offerTokenAmount",
                            "type": "uint256"
                        },
                        {
                            "internalType": "uint256",
                            "name": "offerRate",
                            "type": "uint256"
                        },
                        {
                            "internalType": "uint256",
                            "name": "offerAmountOfTime",
                            "type": "uint256"
                        }
                    ],
                    "internalType": "struct Offer.OfferDetail",
                    "name": "",
                    "type": "tuple"
                }
            ],
            "stateMutability": "view",
            "type": "function"
        },
        {
            "inputs": [
                {
                    "internalType": "uint256",
                    "name": "_requestNumber",
                    "type": "uint256"
                }
            ],
            "name": "getReceiptBook",
            "outputs": [
                {
                    "components": [
                        {
                            "internalType": "address",
                            "name": "vendor",
                            "type": "address"
                        },
                        {
                            "internalType": "address",
                            "name": "lender",
                            "type": "address"
                        },
                        {
                            "internalType": "contract ERC721",
                            "name": "NFTAddress",
                            "type": "address"
                        },
                        {
                            "internalType": "uint256",
                            "name": "tokenId",
                            "type": "uint256"
                        },
                        {
                            "internalType": "uint256",
                            "name": "tokenAmount",
                            "type": "uint256"
                        },
                        {
                            "internalType": "uint256",
                            "name": "tokenRate",
                            "type": "uint256"
                        },
                        {
                            "internalType": "uint256",
                            "name": "amountOfTime",
                            "type": "uint256"
                        },
                        {
                            "internalType": "uint256",
                            "name": "deadLine",
                            "type": "uint256"
                        }
                    ],
                    "internalType": "struct Receipt.ReceiptDetail",
                    "name": "",
                    "type": "tuple"
                }
            ],
            "stateMutability": "view",
            "type": "function"
        },
        {
            "inputs": [
                {
                    "internalType": "uint256",
                    "name": "_requestNumber",
                    "type": "uint256"
                },
                {
                    "internalType": "uint256",
                    "name": "_offerTokenAmount",
                    "type": "uint256"
                },
                {
                    "internalType": "uint256",
                    "name": "_offerRate",
                    "type": "uint256"
                },
                {
                    "internalType": "uint256",
                    "name": "_amountOfTime",
                    "type": "uint256"
                }
            ],
            "name": "lenderMakeOffer",
            "outputs": [],
            "stateMutability": "nonpayable",
            "type": "function"
        },
        {
            "inputs": [],
            "name": "lendingBank",
            "outputs": [
                {
                    "internalType": "address",
                    "name": "",
                    "type": "address"
                }
            ],
            "stateMutability": "view",
            "type": "function"
        },
        {
            "inputs": [
                {
                    "internalType": "uint256",
                    "name": "",
                    "type": "uint256"
                },
                {
                    "internalType": "uint256",
                    "name": "",
                    "type": "uint256"
                }
            ],
            "name": "offerBook",
            "outputs": [
                {
                    "internalType": "address payable",
                    "name": "lender",
                    "type": "address"
                },
                {
                    "internalType": "uint256",
                    "name": "offerTokenAmount",
                    "type": "uint256"
                },
                {
                    "internalType": "uint256",
                    "name": "offerRate",
                    "type": "uint256"
                },
                {
                    "internalType": "uint256",
                    "name": "offerAmountOfTime",
                    "type": "uint256"
                }
            ],
            "stateMutability": "view",
            "type": "function"
        },
        {
            "inputs": [
                {
                    "internalType": "uint256",
                    "name": "",
                    "type": "uint256"
                }
            ],
            "name": "offerOrder",
            "outputs": [
                {
                    "internalType": "uint256",
                    "name": "",
                    "type": "uint256"
                }
            ],
            "stateMutability": "view",
            "type": "function"
        },
        {
            "inputs": [
                {
                    "internalType": "uint256",
                    "name": "",
                    "type": "uint256"
                }
            ],
            "name": "receiptBook",
            "outputs": [
                {
                    "internalType": "address",
                    "name": "vendor",
                    "type": "address"
                },
                {
                    "internalType": "address",
                    "name": "lender",
                    "type": "address"
                },
                {
                    "internalType": "contract ERC721",
                    "name": "NFTAddress",
                    "type": "address"
                },
                {
                    "internalType": "uint256",
                    "name": "tokenId",
                    "type": "uint256"
                },
                {
                    "internalType": "uint256",
                    "name": "tokenAmount",
                    "type": "uint256"
                },
                {
                    "internalType": "uint256",
                    "name": "tokenRate",
                    "type": "uint256"
                },
                {
                    "internalType": "uint256",
                    "name": "amountOfTime",
                    "type": "uint256"
                },
                {
                    "internalType": "uint256",
                    "name": "deadLine",
                    "type": "uint256"
                }
            ],
            "stateMutability": "view",
            "type": "function"
        },
        {
            "inputs": [
                {
                    "internalType": "address",
                    "name": "",
                    "type": "address"
                }
            ],
            "name": "registerAddresses",
            "outputs": [
                {
                    "internalType": "bool",
                    "name": "",
                    "type": "bool"
                }
            ],
            "stateMutability": "view",
            "type": "function"
        },
        {
            "inputs": [
                {
                    "internalType": "address",
                    "name": "",
                    "type": "address"
                }
            ],
            "name": "registerERC721",
            "outputs": [
                {
                    "internalType": "bool",
                    "name": "",
                    "type": "bool"
                }
            ],
            "stateMutability": "view",
            "type": "function"
        },
        {
            "inputs": [],
            "name": "registerLending",
            "outputs": [],
            "stateMutability": "nonpayable",
            "type": "function"
        },
        {
            "inputs": [
                {
                    "internalType": "address",
                    "name": "",
                    "type": "address"
                }
            ],
            "name": "registerNFTs",
            "outputs": [
                {
                    "internalType": "bool",
                    "name": "",
                    "type": "bool"
                }
            ],
            "stateMutability": "view",
            "type": "function"
        },
        {
            "inputs": [
                {
                    "internalType": "uint256",
                    "name": "_requestNumber",
                    "type": "uint256"
                },
                {
                    "internalType": "uint256",
                    "name": "_offerNumber",
                    "type": "uint256"
                }
            ],
            "name": "vendorAcceptOffer",
            "outputs": [],
            "stateMutability": "nonpayable",
            "type": "function"
        },
        {
            "inputs": [
                {
                    "internalType": "uint256",
                    "name": "_requestNumber",
                    "type": "uint256"
                }
            ],
            "name": "vendorExtend",
            "outputs": [],
            "stateMutability": "nonpayable",
            "type": "function"
        },
        {
            "inputs": [
                {
                    "internalType": "contract ERC721",
                    "name": "NFTAddress",
                    "type": "address"
                },
                {
                    "internalType": "uint256",
                    "name": "tokenId",
                    "type": "uint256"
                }
            ],
            "name": "vendorMakeRequest",
            "outputs": [],
            "stateMutability": "nonpayable",
            "type": "function"
        },
        {
            "inputs": [
                {
                    "internalType": "uint256",
                    "name": "_requestNumber",
                    "type": "uint256"
                }
            ],
            "name": "vendorRedeem",
            "outputs": [],
            "stateMutability": "nonpayable",
            "type": "function"
        }
    ],
    "bytecode": "608060405234801561001057600080fd5b50600060405161001f90610062565b604051809103906000f08015801561003b573d6000803e3d6000fd5b50600180546001600160a01b0319166001600160a01b03929092169190911790555061006f565b61060f80610ec083390190565b610e428061007e6000396000f3fe608060405234801561001057600080fd5b50600436106100f55760003560e01c80636f26ba1411610097578063b689876b11610066578063b689876b146102cf578063cbb78c9a146102f2578063fb3f28fe14610305578063fdf586d71461037957600080fd5b80636f26ba141461024357806376f59acf146102765780639e3b6c4c146102995780639f6eb4f3146102c757600080fd5b80633ca5da8d116100d35780633ca5da8d146101bb5780634250b7791461020a5780634ba277a31461021d5780635f6fc51b1461023057600080fd5b806312a1dc1d146100fa5780631e90ca321461017b5780632754f9e314610190575b600080fd5b61010d610108366004610c93565b6103ed565b6040805182516001600160a01b039081168252602080850151821690830152838301511691810191909152606080830151908201526080808301519082015260a0808301519082015260c0808301519082015260e09182015191810191909152610100015b60405180910390f35b61018e610189366004610cac565b6104cd565b005b6001546101a3906001600160a01b031681565b6040516001600160a01b039091168152602001610172565b6101ce6101c9366004610cde565b61060d565b604051610172919081516001600160a01b0316815260208083015190820152604080830151908201526060918201519181019190915260800190565b61018e610218366004610c93565b61069b565b61018e61022b366004610c93565b610729565b61018e61023e366004610d18565b61085d565b610266610251366004610d44565b60026020526000908152604090205460ff1681565b6040519015158152602001610172565b610266610284366004610d44565b60036020526000908152604090205460ff1681565b6102b96102a7366004610c93565b60066020526000908152604090205481565b604051908152602001610172565b61018e610a6a565b6102666102dd366004610d44565b60076020526000908152604090205460ff1681565b61018e610300366004610cde565b610add565b61034f610313366004610cde565b600560209081526000928352604080842090915290825290208054600182015460028301546003909301546001600160a01b0390921692909184565b604080516001600160a01b0390951685526020850193909352918301526060820152608001610172565b6103d9610387366004610c93565b6004602081905260009182526040909120805460018201546002830154600384015494840154600585015460068601546007909601546001600160a01b03958616979486169693909516949192909188565b604051610172989796959493929190610d68565b61045060405180610100016040528060006001600160a01b0316815260200160006001600160a01b0316815260200160006001600160a01b0316815260200160008152602001600081526020016000815260200160008152602001600081525090565b5060009081526004602081815260409283902083516101008101855281546001600160a01b039081168252600183015481169382019390935260028201549092169382019390935260038301546060820152908201546080820152600582015460a0820152600682015460c082015260079091015460e082015290565b3360009081526002602052604081205460ff161515900361052e5760405162461bcd60e51b815260206004820152601660248201527513195b99195c881b5d5cdd081c9959da5cdd195c995960521b60448201526064015b60405180910390fd5b6000848152600660208181526040808420805482516080810184523381528085018a81528185018a8152606083018a81528d8a5260058852868a20858b528852958920925183546001600160a01b0319166001600160a01b039091161783559051600180840191909155905160028301559351600390910155898652939092528154929390926105bf908490610dc5565b909155505060408051338152602081018690529081018490527f9599068d7c60ecc85c08e4316b54c5172646bfe26e0af918ed3060193131e801906060015b60405180910390a15050505050565b610641604051806080016040528060006001600160a01b031681526020016000815260200160008152602001600081525090565b506000828152600560209081526040808320848452825291829020825160808101845281546001600160a01b0316815260018201549281019290925260028101549282019290925260039091015460608201525b92915050565b600081815260046020818152604080842081516101008101835281546001600160a01b0390811682526001830154811694820194909452600282015490931691830191909152600381015460608301529182015460808201819052600583015460a08301819052600684015460c084015260079093015460e083015290929161072391610dd8565b50505050565b600081815260046020818152604080842081516101008101835281546001600160a01b0390811682526001808401548216958301959095526002830154169281019290925260038101546060830152928301546080820152600583015460a08201819052600684015460c083015260079093015460e082015292916107ad91610dc5565b82608001516107bc9190610dd8565b604051909150339082156108fc029083906000818181858888f193505050501580156107ec573d6000803e3d6000fd5b506020820151825160405163c1d2d00d60e01b8152600481018690526001600160a01b0391821660248201529082169063c1d2d00d90604401600060405180830381600087803b15801561083f57600080fd5b505af1158015610853573d6000803e3d6000fd5b5050505050505050565b6040516331a9108f60e11b81526004810182905233906001600160a01b03841690636352211e90602401602060405180830381865afa1580156108a4573d6000803e3d6000fd5b505050506040513d601f19601f820116820180604052508101906108c89190610def565b6001600160a01b03161461091e5760405162461bcd60e51b815260206004820152601d60248201527f4c656e64696e673a2073656e646572206d7573742068617665204e46540000006044820152606401610525565b604051806101000160405280336001600160a01b0316815260200160006001600160a01b03168152602001836001600160a01b0316815260200182815260200160008152602001600081526020016000815260200160008152506004600061098560005490565b815260208082019290925260409081016000908120845181546001600160a01b03199081166001600160a01b03928316178355948601516001808401805488169284169290921790915593860151600283018054909616911617909355606084015160038401556080840151600484015560a0840151600584015560c0840151600684015560e09093015160079092019190915581540190557fcbee656baf0a12ccaae6b918a143d6e0ffd4384d77fd4b4358f7ee7a18c094d33360008484600080600080604051610a5e989796959493929190610d68565b60405180910390a15050565b3360009081526002602052604090205460ff161515600103610ac15760405162461bcd60e51b815260206004820152601060248201526f20b63932b0b23c903932b3b4b9ba37b960811b6044820152606401610525565b336000908152600260205260409020805460ff19166001179055565b60008281526004602081815260408084206005808452828620878752845294829020825160808101845281546001600160a01b031680825260018084015496830187905260028401549583018690526003909301546060830181905292840180546001600160a01b0319169091179055948201939093559384015560068301819055610b699042610dc5565b60078301556002820154825460015460038501546040516323b872dd60e01b81526001600160a01b0393841660048201529183166024830152604482015291169081906323b872dd90606401600060405180830381600087803b158015610bcf57600080fd5b505af1158015610be3573d6000803e3d6000fd5b5050835160208501516040516001600160a01b03909216935080156108fc029250906000818181858888f19350505050158015610c24573d6000803e3d6000fd5b50825460018401546002850154600386015460048701546005880154600689015460078a01546040517f6e2cc63abc32d3d5254a5b4581f3238a783b39feb7064b48d03692f6f806345c986105fe986001600160a01b0391821698908216979116959094909390929091610d68565b600060208284031215610ca557600080fd5b5035919050565b60008060008060808587031215610cc257600080fd5b5050823594602084013594506040840135936060013592509050565b60008060408385031215610cf157600080fd5b50508035926020909101359150565b6001600160a01b0381168114610d1557600080fd5b50565b60008060408385031215610d2b57600080fd5b8235610d3681610d00565b946020939093013593505050565b600060208284031215610d5657600080fd5b8135610d6181610d00565b9392505050565b6001600160a01b03988916815296881660208801529490961660408601526060850192909252608084015260a083015260c082019290925260e08101919091526101000190565b634e487b7160e01b600052601160045260246000fd5b8082018082111561069557610695610daf565b808202811582820484141761069557610695610daf565b600060208284031215610e0157600080fd5b8151610d6181610d0056fea2646970667358221220adb8f3dd1b2d1fe1ea788802576c3eebbf68e95430317e4342156a96cb18aa2b64736f6c63430008110033608060405234801561001057600080fd5b5061001a3361001f565b61006f565b600080546001600160a01b038381166001600160a01b0319831681178455604051919092169283917f8be0079c531659141344cd1fd0a4f28419497f9722a3daafe3b4186f6b6457e09190a35050565b6105918061007e6000396000f3fe608060405234801561001057600080fd5b50600436106100575760003560e01c80634ba277a31461005c578063715018a6146100715780638da5cb5b14610079578063c1d2d00d14610098578063f2fde38b146100ab575b600080fd5b61006f61006a366004610416565b6100be565b005b61006f6101ab565b600054604080516001600160a01b039092168252519081900360200190f35b61006f6100a6366004610444565b6101bf565b61006f6100b9366004610474565b6102ee565b6100c661036c565b6040516312a1dc1d60e01b815260048101829052339060009082906312a1dc1d9060240161010060405180830381865afa158015610108573d6000803e3d6000fd5b505050506040513d601f19601f8201168201806040525081019061012c91906104a8565b6040818101518251606084015192516323b872dd60e01b81523060048201526001600160a01b0391821660248201526044810193909352929350918216906323b872dd90606401600060405180830381600087803b15801561018d57600080fd5b505af11580156101a1573d6000803e3d6000fd5b5050505050505050565b6101b361036c565b6101bd60006103c6565b565b6101c761036c565b6040516312a1dc1d60e01b815260048101839052339060009082906312a1dc1d9060240161010060405180830381865afa158015610209573d6000803e3d6000fd5b505050506040513d601f19601f8201168201806040525081019061022d91906104a8565b604081810151606083015191516323b872dd60e01b81523060048201526001600160a01b038781166024830152604482019390935292935091908216906323b872dd90606401600060405180830381600087803b15801561028d57600080fd5b505af11580156102a1573d6000803e3d6000fd5b5050604080518881526001600160a01b03881660208201527fc11b01f2a3c991d770c6779a695f6264d7189edc3e57260ec9a7f70a44745295935001905060405180910390a15050505050565b6102f661036c565b6001600160a01b0381166103605760405162461bcd60e51b815260206004820152602660248201527f4f776e61626c653a206e6577206f776e657220697320746865207a65726f206160448201526564647265737360d01b60648201526084015b60405180910390fd5b610369816103c6565b50565b6000546001600160a01b031633146101bd5760405162461bcd60e51b815260206004820181905260248201527f4f776e61626c653a2063616c6c6572206973206e6f7420746865206f776e65726044820152606401610357565b600080546001600160a01b038381166001600160a01b0319831681178455604051919092169283917f8be0079c531659141344cd1fd0a4f28419497f9722a3daafe3b4186f6b6457e09190a35050565b60006020828403121561042857600080fd5b5035919050565b6001600160a01b038116811461036957600080fd5b6000806040838503121561045757600080fd5b8235915060208301356104698161042f565b809150509250929050565b60006020828403121561048657600080fd5b81356104918161042f565b9392505050565b80516104a38161042f565b919050565b60006101008083850312156104bc57600080fd5b6040519081019067ffffffffffffffff821181831017156104ed57634e487b7160e01b600052604160045260246000fd5b816040526104fa84610498565b815261050860208501610498565b602082015261051960408501610498565b6040820152606084015160608201526080840151608082015260a084015160a082015260c084015160c082015260e084015160e082015280925050509291505056fea26469706673582212206920401171b8a87e4a8469291d126dbceb9706915fbad633ae78a1e001002a6d64736f6c63430008110033",
    "sourcePath": "/home/khanhdt/smart_contract/contracts/LendingFactory.sol",
    "compiler": {
        "name": "solc",
        "version": "0.8.17+commit.8df45f5f"
    },
    "functionHashes": {
        "getOfferBook(uint256,uint256)": "3ca5da8d",
        "getReceiptBook(uint256)": "12a1dc1d",
        "lenderMakeOffer(uint256,uint256,uint256,uint256)": "1e90ca32",
        "lendingBank()": "2754f9e3",
        "offerBook(uint256,uint256)": "fb3f28fe",
        "offerOrder(uint256)": "9e3b6c4c",
        "receiptBook(uint256)": "fdf586d7",
        "registerAddresses(address)": "6f26ba14",
        "registerERC721(address)": "b689876b",
        "registerLending()": "9f6eb4f3",
        "registerNFTs(address)": "76f59acf",
        "vendorAcceptOffer(uint256,uint256)": "cbb78c9a",
        "vendorExtend(uint256)": "4250b779",
        "vendorMakeRequest(address,uint256)": "5f6fc51b",
        "vendorRedeem(uint256)": "4ba277a3"
    },
    "gasEstimates": {
        "creation": {
            "codeDepositCost": "730000",
            "executionCost": "infinite",
            "totalCost": "infinite"
        },
        "external": {
            "getOfferBook(uint256,uint256)": "9279",
            "getReceiptBook(uint256)": "17936",
            "lenderMakeOffer(uint256,uint256,uint256,uint256)": "121503",
            "lendingBank()": "2405",
            "offerBook(uint256,uint256)": "9043",
            "offerOrder(uint256)": "2505",
            "receiptBook(uint256)": "17586",
            "registerAddresses(address)": "2548",
            "registerERC721(address)": "2547",
            "registerLending()": "26728",
            "registerNFTs(address)": "2570",
            "vendorAcceptOffer(uint256,uint256)": "infinite",
            "vendorExtend(uint256)": "17533",
            "vendorMakeRequest(address,uint256)": "infinite",
            "vendorRedeem(uint256)": "infinite"
        }
    }
}